:1000000085C09FC09EC09DC09CC09BC09AC099C027
:1000100098C0CFCB96C095C094C093C092C091C0F9
:1000200090C05BC863C869C876C8CEC7CDC7CCC707
:10003000CBC7CAC7C9C781C8ABC8DFC80EC9C4C748
:10004000C3C7C2C7C1C7C0C7BFC726C931C93FC917
:100050004AC955C9B9C7B8C7B7C7B6C7B5C763C9CD
:100060006AC971C973C98EC9AFC7AEC7ADC7ACC7BE
:10007000ABC78CC9B9C9A8C7A7C7A6C7A5C7A4C716
:10008000A3C7A2C7A1C7C7C9D5C9E1C99DC79CC796
:100090009BC79AC799C798C797C7F3C968CAFAC9CF
:1000A00003CA0FCA1CCA32CA4ACA54CA8DC766CA12
:1000B00070CA79CA9BCA88C787C786C785C784C7DD
:1000C00083C79BCA9ECAA0CAA7CABBCABECAD1CA96
:1000D0007BC77AC779C7E6CA03CB15CB27CB05A860
:1000E0004CCDB2D44EB93836A9020C50B99186889D
:1000F000083CA6AAAA2ABE000000803F7C77125DB9
:100100005B3A6B6F527F7B040801136D11241FBE95
:10011000CFE5D2E0DEBFCDBF10E0A0E6B0E0E8ED75
:10012000FFE102C005900D92A636B107D9F722E093
:10013000A6E6B0E001C01D92A031B207E1F7A6DB50
:1001400049CF5ECFCCDB089586FF02C0C29801C0C4
:10015000C29A85FF02C0DD9801C0DD9A84FF02C00B
:10016000C19801C0C19A83FF02C0DC9801C0DC9A2B
:1001700082FF02C0DE9801C0DE9A81FF02C0C098F3
:1001800001C0C09A80FF02C0DF980895DF9A0895E9
:10019000E82FF0E0E450FF4F8491D6CF97B1907FE5
:1001A00097B997B1982B97B9369A3699FECF24B163
:1001B00035B1C9010895CF93DF93C0916600D09106
:1001C000670083E0EBDF90936700809366009E01F9
:1001D000225F3F4F2817390734F09E012E50310916
:1001E0008217930744F4E7EEF3E03197F1F700C08C
:1001F0000000EC01E6CFC83AD1054CF0C93AF1E075
:10020000DF073CF0C433D24034F482E005C080E024
:1002100003C081E001C083E0DF91CF910895609138
:100220006D0070916E0080916F0090917000089544
:10023000CF92DF92EF92FF920F931F93BCDF982F24
:10024000927081702091690021112AC0992399F040
:1002500021E02093690040916D0050916E00609103
:100260006F00709170004093710050937200609322
:10027000730070937400882399F022E02093690042
:1002800040916D0050916E0060916F007091700010
:1002900040937100509372006093730070937400E8
:1002A000209169002130F1F540916D0050916E0070
:1002B00060916F0070917000009171001091720058
:1002C00020917300309174006A017B01C01AD10A39
:1002D000E20AF30AE1E2CE16E3E0DE06E104F1040D
:1002E0006CF023E02093690020936A004093710032
:1002F000509372006093730070937400911105C065
:1003000021E020936A0010926900882359F02AE0C6
:1003100020936900409371005093720060937300C2
:1003200070937400209169002230F1F540916D00C6
:1003300050916E0060916F0070917000009171009B
:100340001091720020917300309174006A017B015A
:10035000C01AD10AE20AF30AE1E2CE16E3E0DE06B1
:10036000E104F1046CF024E02093690020936A001A
:100370004093710050937200609373007093740007
:10038000811105C022E020936A0010926900992330
:1003900059F02BE020936900409371005093720054
:1003A0006093730070937400E0916900E33059F535
:1003B00040916D0050916E0060916F0070917000DF
:1003C00000917100109172002091730030917400BF
:1003D0006A017B01C01AD10AE20AF30A9701860179
:1003E000093C11052105310554F0E0936A00409362
:1003F00071005093720060937300709374009111B8
:1004000002C010926900E0916900E43059F5409112
:100410006D0050916E0060916F00709170000091BE
:1004200071001091720020917300309174006A0184
:100430007B01C01AD10AE20AF30A97018601093C3E
:1004400011052105310554F0E0936A0040937100D5
:10045000509372006093730070937400811102C016
:1004600010926900209169002530C9F4911102C0F1
:1004700010926900882399F02AE020936900409146
:100480006D0050916E0060916F007091700040930C
:100490007100509372006093730070937400209108
:1004A00069002630C9F4811102C0109269009923B5
:1004B00099F02BE02093690040916D0050916E00FF
:1004C00060916F00709170004093710050937200C2
:1004D0006093730070937400209169002730D9F401
:1004E000811104C01092690020936A00992399F049
:1004F0002AE02093690040916D0050916E00609158
:100500006F0070917000409371005093720060937F
:10051000730070937400209169002830D9F4911110
:1005200004C01092690020936A00882399F02BE0A0
:100530002093690040916D0050916E0060916F00B2
:10054000709170004093710050937200609373003B
:100550007093740020916900293031F4911104C026
:10056000811102C010926900209169002A3051F572
:1005700040916D0050916E0060916F00709170001D
:1005800000917100109172002091730030917400FD
:10059000401B510B620B730B413D574061057105C8
:1005A0002CF029E02093690020936A00911103C088
:1005B00027E020936900811105C025E020936A009F
:1005C00020936900209169002B3051F540916D0016
:1005D00050916E0060916F007091700000917100F9
:1005E000109172002091730030917400401B510BE8
:1005F000620B730B413D5740610571052CF029E0FA
:100600002093690020936A00911105C096E09093B1
:100610006A0090936900811103C088E080936900AB
:100620001F910F91FF90EF90DF90CF900895FB0105
:10063000F595E795E80FF91F808160FF82958F702F
:100640000895FB01F595E795E80FF91F808160FD9E
:1006500007C0982F9F70842F8295807F892B02C0BE
:10066000807F842B808308957F928F929F92AF9298
:10067000BF92CF92DF92EF92FF920F931F93CF938F
:10068000DF93EC01F12CE12CA12C912C40E8842E7D
:100690005FE3752E062F10E0B8016F0D711DCE01BE
:1006A000C6DF8B3011F4EE24E394982F9D509330E5
:1006B00028F4B12CC12CD12CE12C55C081508A30AA
:1006C00078F4EE2069F02DEC3CEC4CEC5DE36A2D07
:1006D000792D882D972DF8DAA62E972E882E792E33
:1006E000F394DACFFA94B8016F0D711DCE019FDF3C
:1006F000982F91509A3048F5682F70E06150710939
:10070000882777FD8095982F2BDA9B01AC016A2D05
:10071000792D882D972DD8DA9B01AC016B2D7C2D7E
:100720008D2D9E2D1AD9B62EC72ED82EE92E20E05B
:1007300030E040E251E46A2D792D882D972DC4DAFE
:10074000A62E972E882E792E0EC08C3061F42B2D7C
:100750003C2D4D2D5E2D60E070E0CB01FDD8B62E16
:10076000C72ED82EE92EF110BDCF6B2D7C2D8D2DEF
:100770009E2DDF91CF911F910F91FF90EF90DF9011
:10078000CF90BF90AF909F908F907F9008957F9271
:100790008F929F92AF92BF92CF92DF92EF92FF9291
:1007A0000F931F93CF93DF93EC01CB01BA012FE698
:1007B00032E143E05AE3D1D8062FF72EE82ED92EA6
:1007C00020E030E0A9012DD987FF13C04CE060E0A4
:1007D00070E0CE0136DF202F3F2D4E2D5D2D60E0E5
:1007E00070E0CB01B9D8062FF72EE82ED92E11E0F4
:1007F00001C010E020E030E040E85FE3602F7F2D93
:100800008E2D9D2D0ED987FD07C0912CA12CA0E81F
:10081000BA2EBFE3CB2E45C041E0612F70E0CE0180
:1008200010DF612F6F5F4BE070E0CE010ADF1E5FCB
:100830006DECC62E7CECB72EECEC9E2EFDE38F2EDD
:1008400014C041E0612F70E0CE01FBDE1F5F2DEC94
:100850003CEC4CEC5DE3F4016C2D7B2D8F2F982D3F
:1008600033DAC62EB72E982E892E202F3F2D4E2DEF
:100870005D2DF4016C2D7B2D8F2F982D21DA18160C
:1008800004F3AA24A39486C020E030E040E251E4BF
:10089000692D7A2D8B2D9C2D17DA962EA72EB82E2A
:1008A000C92E202F3F2D4E2D5D2D692D7A2D8B2D9C
:1008B0009C2DB7D887FDE8CF2DEC3CEC4CEC5DE3EC
:1008C000692D7A2D8B2D9C2DFFD9C62EB72E982EF3
:1008D000892EA12C5FC020E030E040E05FE3F4010E
:1008E0006C2D7B2D8F2F982D9CD887FF0AC0A110CF
:1008F00006C04BE0612F70E0CE01A3DE1F5FAA248B
:10090000A394772473940FC0C4012C2D3B2D492F41
:10091000582D602F7F2D8E2D9D2D1ED8062FF72E42
:10092000E82ED92E739420E030E0A901602F7F2DAE
:100930008E2D9D2DC5D987FFE7CF20E030E0A9019E
:10094000602F7F2D8E2D9D2D6CD887FF0FC0C40189
:100950002C2D3B2D492F582D602F7F2D8E2D9D2D19
:10096000FCD7062FF72EE82ED92E7A94472D612F2B
:1009700070E0CE0166DE2DEC3CEC4CEC5DE3F40166
:100980006C2D7B2D8F2F982D9FD9C62EB72E982E8C
:10099000892E1F5F2FE632E143E05AE3F4016C2D0C
:1009A0007B2D8F2F982D8CD9181694F04FE0612F46
:1009B00070E0CE01DF91CF911F910F91FF90EF90EA
:1009C000DF90CF90BF90AF909F908F907F9039CE67
:1009D000133208F480CFEACF80916800833051F45D
:1009E00060910B0270910C028091770090917800D9
:1009F0001EDECEDB80916800843019F480910D02F8
:100A0000C7CB089580E0A0DB8BE594E40197F1F774
:100A100000C00000E1CFAF92BF92CF92DF92EF9281
:100A2000FF920F931F93CF93DF931F92CDB7DEB743
:100A300083E08093680060910B0270910C028091BA
:100A4000770090917800F3DDA3DBC12C10EFD12E5D
:100A5000EFDB80916A00813011F0833079F480916E
:100A60000B0290910C021816190644F4019790930A
:100A70000C0280930B02C6DF10926A0080916A001C
:100A8000823011F08430A9F400910B0210910C0215
:100A9000B8018091770090917800C9DD8F3049F0DE
:100AA0000F5F1F4F10930C0200930B02ABDF1092ED
:100AB0006A0080916A00853069F5E0907700F090D7
:100AC0007800A12CB12C00910B0210910C02B801FE
:100AD000C701ADDD8E3039F40F5F1F4F10930C024C
:100AE00000930B0212C08F3081F00F5F1F4F1093E5
:100AF0000C0200930B028FEFA81AB80A90E9A9160E
:100B000091E0B90601F77EDF03C0AB28E1F764DFAF
:100B100010926A0080916A00863009F047C0E09028
:100B20007700F090780000E911E020E01CC0B501EA
:100B3000C70129837CDD29818E3059F4213041F4AD
:100B4000EFEFAE1ABE0AB0920C02A0920B022AC0BE
:100B500021E0F1E0AF1AB108B0920C02A0920B02B2
:100B60000150110939F0A0900B02B0900C021A1438
:100B70001B04ECF2211116C080910B0290910C0223
:100B8000892B81F4C39484E08C1550F4E0917700B4
:100B9000F0917800D08210920C0210920B02C12CBE
:100BA0001BDF02C02FDFC12C10926A0080916A0007
:100BB000873061F08850823008F04ACF80E0C4DA94
:100BC000EFE4F3EC3197F1F700C000000F90DF91F4
:100BD000CF911F910F91FF90EF90DF90CF90BF903A
:100BE000AF9008957F928F929F92AF92BF92CF92D3
:100BF000DF92EF92FF920F931F93CF93DF93D82E44
:100C000084E08093680010920D0280E0C1DA0CE06D
:100C1000B02E8EE0A82ECC24C3940ADB80916A000B
:100C2000813011F08330A1F480910D02823040F4C4
:100C3000DD2019F0A0920D0206C0B0920D0203C093
:100C4000815080930D0280910D02A2DA10926A0009
:100C500080916A00823011F0843099F480910D0205
:100C60008F5F80930D02DD2019F08F3028F002C0D5
:100C70008D3010F0C0920D0280910D0289DA109231
:100C80006A0080916A008530E1F5C0910B02D09135
:100C90000C02E0907700F09078008E0100571E4F14
:100CA00001C02196BE01C701C2DC8F3071F0C017B0
:100CB000D107B9F70AC0BE01C801B9DCBE016F5F38
:100CC0007F4F482FC801BDDC219760910B027091C6
:100CD0000C020091770010917800C617D7075CF7D7
:100CE00040910D02C801ADDC20910B0230910C0245
:100CF0002F5F3F4F30930C0220930B0283DE109244
:100D00006A0080916A008630B9F500910B0210915B
:100D10000C021016110674F5E8012197BE018091AE
:100D200077009091780083DC782E01571E4F11C018
:100D30007E018FEFE81AF80A809077009090780093
:100D4000B701C40174DC782E482FBE01C40179DCE0
:100D5000E7019FE0791619F0C017D10749F72091F4
:100D60000B0230910C022150310930930C02209378
:100D70000B0248DE10926A0080916A00873061F0B1
:100D80008850823008F049CF80E0DED98FE493ECC0
:100D90000197F1F700C00000DF91CF911F910F91F3
:100DA000FF90EF90DF90CF90BF90AF909F908F908B
:100DB0007F900895CF93C82F611108C010926A00E8
:100DC0002ADE90916A00983081F40CC010926A007B
:100DD0008C2F08DF90916A00983009F403C0993095
:100DE00069F705C010926A0002C0993079F7CF9177
:100DF00008950F931F93CF93DF9309E710E0C0E0AE
:100E0000D0E0CE01AFD8F80181938F012196C0398F
:100E1000F1E0DF07B1F789E790E0909378008093E5
:100E2000770010920C0210920B0260E081E0C2DFAA
:100E300080916A00893019F410926A000AC040E972
:100E400051E060E070E089E790E094D8E199FECF4E
:100E5000ECCFDF91CF911F910F910895FC01EE0F20
:100E6000FF1FEE0FFF1FE758FF4F50814181328176
:100E70002381652F742F832F922F0895FC01EE0F8D
:100E8000FF1FEE0FFF1FE758FF4F40835183628320
:100E900073830895E82FF0E0EE0FFF1FEE0FFF1FA2
:100EA000EF51FE4F5081418132812381652F742F94
:100EB000832F922F0895EEDF25D6862F0895EADF3F
:100EC0001CD6FB01EE0FFF1FEE0FFF1FE758FF4F71
:100ED0005081418132812381652F742F832F922F7E
:100EE0000895EDDF0FD6862F0895E9DF06D6089521
:100EF000CF92DF92EF92FF926A017B01CBDFFDD5AB
:100F0000FB01EE0FFF1FEE0FFF1FE758FF4FC082E0
:100F1000D182E282F382FF90EF90DF90CF9008952C
:100F2000CF93C82F70E080E090E018D6AB01BC01F1
:100F30008C2FCF91DDCFCF93C82FCB01BA0110D624
:100F4000AB01BC018C2FCF91D3CFE0910E02F0E02A
:100F5000EE0FFF1FEB50FE4F808191810895E091CD
:100F60000E02F0E0EE0FFF1FEB50FE4F91838083E7
:100F700008954F925F926F927F928F929F92AF925D
:100F8000BF92CF92DF92EF92FF920F931F93CF9376
:100F9000DF9300D000D01F92CDB7DEB780916D00F7
:100FA00090916E00D4D71092760010927500109236
:100FB0000E0281E080930F0289E293E290930A028D
:100FC0008093090210EF0AE02091750030917600BD
:100FD0008091090290910A02281739070CF0D3C3B7
:100FE00027D980916A00893009F437C3C090750011
:100FF000D0907600E12CF12C9E2CA0907500B09042
:101000007600C50195958795ADD78983B501617047
:101010007727CE0101960BDB582F482FB7018DECB7
:1010200091E05D830EDB20917500309176002F5F9B
:101030003F4F30937600209375005D815E3091F0D4
:101040005F3029F430930A02209309020BC08FEF1E
:10105000E81AF80AE8E2EE16F10471F6B12CE12C78
:10106000F12C04C0992009F4AFCFF8CF6F2D8DEC8F
:1010700091E0FADAEB2DF0E0EE0FFF1FEE0FFF1F0D
:10108000EF51FE4F6083718382839383B3946F2DFE
:1010900070E08DEC91E0CBDAF3948D3039F38E5023
:1010A000823008F461C3E39486E28E1580F75CC356
:1010B000803409F409C220F48E3308F485CF1DC2B0
:1010C000813409F081CF19C2E82FF0E0EE35F10547
:1010D00008F07ACFEF5EFF4F09944091E5015091FF
:1010E000E6016091E7017091E80104C081E0E7DE6C
:1010F000AB01BC0182E0FCDE67CF81E0F6DEFB01E4
:10110000EE0FFF1FEE0FFF1FE758FF4F4081518189
:1011100062817381EFCF81E0D2DE6B017C0182E0DE
:10112000E4DEFB01EE0FFF1FEE0FFF1FE758FF4F3E
:10113000C082D182E282F38247CF81E0D6DE6B01AA
:101140007C0182E0CEDE782E83E0CFDE20E030E04E
:101150001CC0F901EC0DFD1DEE0FFF1FEE0FFF1F70
:10116000E758FF4F80809180A280B380F901E60F9D
:10117000F71FEE0FFF1FEE0FFF1FE758FF4F808294
:101180009182A282B3822F5F3F4F271510F31CCFAD
:1011900081E0ABDE6B017C0182E0A3DE982E83E070
:1011A000A4DE2B013C01A12CB12C20C0F501EC0DDB
:1011B000FD1DEE0FFF1FEE0FFF1FE758FF4F608171
:1011C000718182819381F501E40DF51DEE0FFF1F02
:1011D000EE0FFF1FE758FF4F20813181428153817D
:1011E000EFEFAE1ABE0A1DD4811104C0A914F0F2AB
:1011F00061E001C060E084E0F5C081E060DE6B0189
:101200007C0182E072DE2B013C0183E06ADE882EE5
:10121000A12CB12C1AC0F501E40DF51DEE0FFF1F36
:10122000EE0FFF1FE758FF4F20813181428153812C
:101230008FEFA81AB80AC701B601F3D3811105C010
:10124000492D50E060E070E006C09A2CA81418F315
:101250004FEF5FEFBA0184E064C081E030DE6B01E4
:101260007C0182E042DE4B015C0183E03ADE20E05B
:1012700030E00FC0F901E80DF91DEE0FFF1FEE0F72
:10128000FF1FE758FF4FC082D182E282F3822F5FB7
:101290003F4F281778F398CE81E011DE6B017C0177
:1012A00082E00DDE9B01AC01C701B60156D30BC035
:1012B00081E005DE6B017C0182E001DE9B01AC0177
:1012C000C701B60149D3AB01BC0183E014CF81E073
:1012D000F6DD6B017C0182E0F2DD9B01AC01C70110
:1012E000B601F2D4F0CF81E0EADD6B017C0182E04F
:1012F000E6DD9B01AC01C701B60197D3E4CF82E0E4
:10130000F4DD9B01AC0181E02A833B834C835D8348
:10131000ECDD2A813B814C815D81E1D2AB01BC01D6
:1013200083E009DE51CE81E0CADD20E030E040E814
:101330005FE313D3B3C181E0C2DD20E030E040E8D9
:101340005FE30AD3ABC181E0D0DD19C0FCD56C01ED
:10135000FAD5EE24D7FCE094FE2C7601DD24CC24D3
:10136000AA2797FDA095BA2FC82AD92AEA2AFB2ACC
:1013700081E0BBDD9B01AC01C701B601B0D2AB017E
:10138000BC01D2C181E09BDD0AD5B2CE81E097DD00
:101390006B017C0182E093DD4B015C012FE632E1C1
:1013A00043E85AE3D9D29B01AC01C701B60188D406
:1013B00087FD15C02FE632E143E85AE3C501B401C9
:1013C000CCD29B01AC01AA24A394B12CC701B601D5
:1013D00028D3181614F4A12CB12CB50102C060E07A
:1013E00070E083E09DDDF0CD81E069DD6B017C0183
:1013F00082E065DD2FE632E143E85AE3AED29B019D
:10140000AC01BB24B394C701B6015AD418160CF032
:10141000B12C6B2DE6CF81E052DDFF24F3942FE653
:1014200032E143E85AE34CD418160CF0F12C61E099
:101430006F2561C181E043DD2FE632E143E85AE3E5
:101440003FD418160CF00DC061E070E0CACF81E007
:1014500036DD2FE632E143E85AE332D418160CF0B9
:10146000BECF82E02CDDEE24E394F12C2FE632E1B6
:1014700043E85AE325D4181614F0E12CF12CB701F7
:10148000B0CF4091750050917600662757FD60956A
:10149000762F87C081E013DD2FE632E143E85AE37F
:1014A0000FD4181654F509C081E009DD2FE632E1AA
:1014B00043E85AE305D4181604F1F394F0920F02AE
:1014C0001CC0FA94F0920F02915090930E023DDDF1
:1014D00097FD7ACD909376008093750075CD81E06D
:1014E000EEDC2FE632E143E85AE3EAD318162CF497
:1014F000F394F0920F02C60102C08FEF9FEF2FDD31
:1015000080910E028F5F80930E025ECDFA94F901F6
:10151000EE0FFF1FED50FE4F02C0FA94329780810C
:10152000918197FD07C0F0920F028FEF9FEF91839B
:1015300080834ACDF110F1CF10920F02F6CF409187
:10154000750050917600662757FD6095762F81E0F3
:10155000F2DCD3CFF394F0920F028091750090915A
:101560007600FDDC80910E028F5F80930E0281E099
:10157000BCDC709376006093750026CD81E0B5DC0D
:1015800060936D0070936E0080936F009093700075
:101590001BCD40916D0050916E0060916F00709175
:1015A000700081E0BECEC0906D00D0906E00E090E3
:1015B0006F00F090700081E098DCC60ED71EE81E28
:1015C000F91E06C035D680916A00893009F445C0FD
:1015D00080916D0090916E00A0916F00B0917000AD
:1015E0008C159D05AE05BF056CF3EECC81E07DDC6E
:1015F0007093610060936000E7CC81E072DCA4D559
:10160000E3CC81E06EDC06C081E06BDC602F5BD157
:10161000892F8F5FBDD5D8CC8DEC91E09093780069
:101620008093770081E04BDCAB01BC018DEC91E055
:10163000AED810920C0210920B0260E081E0BADB8F
:10164000C3CCB9D5682F81E0CDCE10926A0008C016
:10165000EFD580916A00893019F410926A0093C026
:1016600060916A006623A1F381E05ADC10926A005F
:10167000ABCC8DEC91E09093780080937700109341
:10168000CD0110920C0210920B0261E080E092DB1F
:1016900060E08091770090917800E6D7AB01BC01C3
:1016A00081E029CD81E01DDCF82E82E01ADC811179
:1016B00006C0FF2011F0D09A87CCD09885CC81301D
:1016C00031F4FF2011F0D19A7FCCD1987DCC8230BB
:1016D00009F07ACCFF2011F0D29A76CCD29874CC53
:1016E00081E0FFDB811103C069B3617004C0813008
:1016F00021F469B3627082E075CE823009F064CC67
:1017000069B364706FCE81E0ECDB811101C006C06B
:10171000813009F403C0823009F056CC3FD5AC01CA
:10172000662757FD6095762F82E0FBCD81E0D9DBFF
:10173000F82E82E0D6DB811106C0FF2011F0D89A86
:1017400043CCD89841CC813031F4FF2011F0D99AA4
:101750003BCCD99839CC823009F036CCFF2011F03F
:10176000DA9A32CCDA9830CC80E0A5DBF0900F0228
:1017700090910E02292F30E04F2D50E024173507AD
:101780000CF096CCA1CC0F900F900F900F900F9073
:10179000DF91CF911F910F91FF90EF90DF90CF904D
:1017A000BF90AF909F908F907F906F905F904F9081
:1017B00008951F920F920FB60F9211242F933F930B
:1017C0004F935F936F937F938F939F93AF93BF9349
:1017D000EF9380916D0090916E00A0916F00B09199
:1017E00070002091600030916100285E3C4F409174
:1017F0006B0050916C00240F351F8196A11DB11D07
:1018000002C0285E3340782F692F5A2F4B2F019644
:10181000A11DB11D283EE3E03E079CF770936D00CB
:1018200060936E0050936F004093700080916D0044
:1018300090916E00A0916F00B091700002C028518D
:101840003C4F782F692F5A2F4B2F0197A109B109CF
:1018500037FDF5CF70936D0060936E0050936F006D
:101860004093700030936C0020936B00EF91BF9118
:10187000AF919F918F917F916F915F914F913F9128
:101880002F910F900FBE0F901F901895BA9AD59A6E
:10189000B99AD49AD69AB89AD79AD398319A309A54
:1018A000379A89B7826089BF80B7826080BF83B76B
:1018B000846083BF83B7816083BF80E286BF7894F2
:1018C00098DA57DBFDCF991B79E004C0991F961772
:1018D00008F0961B881F7A95C9F780950895052E04
:1018E00097FB16F4009406D057FD0CD013D007FCDC
:1018F00009D07EF490958095709561957F4F8F4FBC
:101900009F4F089550954095309521953F4F4F4FEB
:101910005F4F0895A1E21A2EAA1BBB1BFD010DC04B
:10192000AA1FBB1FEE1FFF1FA217B307E407F5078F
:1019300020F0A21BB30BE40BF50B661F771F881F6B
:10194000991F1A9469F760957095809590959B0101
:10195000AC01BD01CF0108955058BB27AA270ED076
:1019600075C166D130F06BD120F031F49F3F11F496
:101970001EF45BC10EF4E095E7FB51C1E92F77D16E
:1019800080F3BA17620773078407950718F071F49C
:101990009EF58FC10EF4E0950B2EBA2FA02D0B01F2
:1019A000B90190010C01CA01A0011124FF27591BA4
:1019B00099F0593F50F4503E68F11A16F040A22FAA
:1019C000232F342F4427585FF3CF4695379527951B
:1019D000A795F0405395C9F77EF41F16BA0B620B1A
:1019E000730B840BBAF09150A1F0FF0FBB1F661F61
:1019F000771F881FC2F70EC0BA0F621F731F841FA4
:101A000048F4879577956795B795F7959E3F08F0C9
:101A1000B3CF9395880F08F09927EE0F9795879588
:101A20000895D9D008F481E008950CD00FC107D1F2
:101A300040F0FED030F021F45F3F19F0F0C05111BA
:101A400039C1F3C014D198F39923C9F35523B1F3E5
:101A5000951B550BBB27AA2762177307840738F01D
:101A60009F5F5F4F220F331F441FAA1FA9F333D07C
:101A70000E2E3AF0E0E830D091505040E695001C30
:101A8000CAF729D0FE2F27D0660F771F881FBB1FEC
:101A9000261737074807AB07B0E809F0BB0B802DC6
:101AA000BF01FF2793585F4F2AF09E3F510568F012
:101AB000B6C000C15F3FECF3983EDCF386957795A6
:101AC0006795B795F7959F5FC9F7880F911D969514
:101AD000879597F90895E1E0660F771F881FBB1F70
:101AE000621773078407BA0720F0621B730B840B1D
:101AF000BA0BEE1F88F7E095089504D06894B111F1
:101B0000D9C00895BCD088F09F5790F0B92F99277D
:101B1000B751A0F0D1F0660F771F881F991F1AF0F8
:101B2000BA95C9F712C0B13081F0C3D0B1E00895C1
:101B3000C0C0672F782F8827B85F39F0B93FCCF342
:101B4000869577956795B395D9F73EF490958095EE
:101B5000709561957F4F8F4F9F4F0895E89409C00E
:101B600097FB3EF490958095709561957F4F8F4FD0
:101B70009F4F9923A9F0F92F96E9BB279395F695E6
:101B8000879577956795B795F111F8CFFAF4BB0F64
:101B900011F460FF1BC06F5F7F4F8F4F9F4F16C0C8
:101BA000882311F096E911C0772321F09EE8872F52
:101BB000762F05C0662371F096E8862F70E060E00E
:101BC0002AF09A95660F771F881FDAF7880F969587
:101BD000879597F90895990F0008550FAA0BE0E82B
:101BE000FEEF16161706E807F907C0F012161306DF
:101BF000E407F50798F0621B730B840B950B39F41F
:101C00000A2661F0232B242B252B21F408950A2684
:101C100009F4A140A6958FEF811D811D089597F9C4
:101C20009F6780E870E060E008959FEF80EC089582
:101C300000240A94161617061806090608950024AB
:101C40000A9412161306140605060895092E039425
:101C5000000C11F4882352F0BB0F40F4BF2B11F499
:101C600060FF04C06F5F7F4F8F4F9F4F089557FDF8
:101C70009058440F551F59F05F3F71F04795880FFA
:101C800097FB991F61F09F3F79F087950895121691
:101C900013061406551FF2CF4695F1DF08C016163D
:101CA00017061806991FF1CF8695710561050894EE
:101CB0000895E894BB2766277727CB0197F9089505
:101CC0008ADF08F48FEF08950AD0C0CFB1DF28F083
:101CD000B6DF18F0952309F0A2CFA7CFEBCFC7DF6F
:101CE000A8F39923D9F35523C9F3950F50E0551F55
:101CF000AA27EE27FF27BB2700240894679520F426
:101D0000E20FF31FB41F0A1E220F331F441FAA1F26
:101D10006695A9F7779530F4F30FB41F0A1E121ECB
:101D200008F46395330F441FAA1F221F769599F775
:101D3000879520F4B40F0A1E121E631F440FAA1FBA
:101D4000221F331F8695A9F7862F712D602D112430
:101D50009F5750408AF0E1F088234AF0EE0FFF1FB2
:101D6000BB1F661F771F881F91505040A9F79E3FE9
:101D7000510570F054CF9ECF5F3FECF3983EDCF3FB
:101D8000869577956795B795F795E7959F5FC1F726
:101D9000FE2B880F911D9695879597F908959F932F
:101DA00005D00F9007FCEE5F28C03FCF68DFE8F357
:101DB000E894E0E0BB279F57F0F02AED3FE049ECC4
:101DC00006C0EE0FBB0F661F771F881F28F0B23AC0
:101DD00062077307840728F0B25A620B730B840BF7
:101DE000E3959A9572F7803830F49A95BB0F661F89
:101DF000771F881FD2F7904813C0EF93E0FF06C00B
:101E0000A2EA2AED3FE049EC5FEBB8DD1FDF0F905F
:101E1000039401FC9058EEEDF0E00EC09F3F31F0CE
:101E2000915020F4879577956795B795880F911D08
:101E30009695879597F908959F938F937F936F93C6
:101E4000FF93EF939B01AC013FDFEF91FF9105D032
:101E50002F913F914F915F9137CFDF93CF931F9396
:101E60000F93FF92EF92DF927B018C01689405C083
:101E7000DA2EEF0134DFFE01E894A591259135912A
:101E800045915591AEF3EF0179DDFE019701A8016F
:101E9000DA9479F7DF90EF90FF900F911F91CF9137
:101EA000DF9108958F929F92AF92BF92CF92DF926F
:101EB000EF92FF92CF93DF93EC01688179818A8161
:101EC0009B81611571058105910521F464E279ED2D
:101ED0008BE597E02DE133EF41E050E000DD490173
:101EE0005A0127EA31E440E050E05BD06B017C010D
:101EF0002CEE34EF4FEF5FEFC501B40152D0AB01D0
:101F0000BC01C40ED51EE61EF71EF7FE06C081E01A
:101F1000C81AD108E10880E8F80AC882D982EA82A2
:101F2000FB82E894D7F8EE24FF24C601DF91CF911D
:101F3000FF90EF90DF90CF90BF90AF909F908F90E9
:101F40000895B0DF089582E690E0ACDF0895A0E048
:101F5000B0E08093620090936300A0936400B0931C
:101F600065000895E199FECF9FBB8EBBE09A99274B
:101F70008DB30895DC01CB0102C02D9105D04150F5
:101F80005040D8F70895262FE199FECF1CBA9FBB89
:101F90008EBB2DBB0FB6F894E29AE19A0FBE019664
:101FA0000895FF27EE27BB27AA2760FF04C0A20FD2
:101FB000B31FE41FF51F220F331F441F551F9695B3
:101FC00087957795679589F70097760771F7CF0121
:081FD000BD010895F894FFCF54
:061FD80038FF01000000CB
:00000001FF
